{"abi":[{"type":"constructor","inputs":[],"stateMutability":"nonpayable"},{"type":"function","name":"addToken","inputs":[{"name":"token","type":"address","internalType":"address"}],"outputs":[],"stateMutability":"nonpayable"},{"type":"function","name":"allowedTokens","inputs":[{"name":"","type":"address","internalType":"address"}],"outputs":[{"name":"","type":"bool","internalType":"bool"}],"stateMutability":"view"},{"type":"function","name":"allowedTokensList","inputs":[{"name":"","type":"uint256","internalType":"uint256"}],"outputs":[{"name":"","type":"address","internalType":"address"}],"stateMutability":"view"},{"type":"function","name":"cancelOperation","inputs":[{"name":"operationId","type":"uint256","internalType":"uint256"}],"outputs":[],"stateMutability":"nonpayable"},{"type":"function","name":"completeOperation","inputs":[{"name":"operationId","type":"uint256","internalType":"uint256"}],"outputs":[],"stateMutability":"nonpayable"},{"type":"function","name":"createOperation","inputs":[{"name":"tokenA","type":"address","internalType":"address"},{"name":"tokenB","type":"address","internalType":"address"},{"name":"amountA","type":"uint256","internalType":"uint256"},{"name":"amountB","type":"uint256","internalType":"uint256"}],"outputs":[],"stateMutability":"nonpayable"},{"type":"function","name":"getAllOperations","inputs":[],"outputs":[{"name":"","type":"tuple[]","internalType":"struct Escrow.Operation[]","components":[{"name":"id","type":"uint256","internalType":"uint256"},{"name":"creator","type":"address","internalType":"address"},{"name":"tokenA","type":"address","internalType":"address"},{"name":"tokenB","type":"address","internalType":"address"},{"name":"amountA","type":"uint256","internalType":"uint256"},{"name":"amountB","type":"uint256","internalType":"uint256"},{"name":"status","type":"uint8","internalType":"enum Escrow.OperationStatus"}]}],"stateMutability":"view"},{"type":"function","name":"getAllowedTokens","inputs":[],"outputs":[{"name":"","type":"address[]","internalType":"address[]"}],"stateMutability":"view"},{"type":"function","name":"operations","inputs":[{"name":"","type":"uint256","internalType":"uint256"}],"outputs":[{"name":"id","type":"uint256","internalType":"uint256"},{"name":"creator","type":"address","internalType":"address"},{"name":"tokenA","type":"address","internalType":"address"},{"name":"tokenB","type":"address","internalType":"address"},{"name":"amountA","type":"uint256","internalType":"uint256"},{"name":"amountB","type":"uint256","internalType":"uint256"},{"name":"status","type":"uint8","internalType":"enum Escrow.OperationStatus"}],"stateMutability":"view"},{"type":"function","name":"owner","inputs":[],"outputs":[{"name":"","type":"address","internalType":"address"}],"stateMutability":"view"},{"type":"function","name":"renounceOwnership","inputs":[],"outputs":[],"stateMutability":"nonpayable"},{"type":"function","name":"transferOwnership","inputs":[{"name":"newOwner","type":"address","internalType":"address"}],"outputs":[],"stateMutability":"nonpayable"},{"type":"event","name":"OperationCancelled","inputs":[{"name":"id","type":"uint256","indexed":true,"internalType":"uint256"}],"anonymous":false},{"type":"event","name":"OperationCompleted","inputs":[{"name":"id","type":"uint256","indexed":true,"internalType":"uint256"},{"name":"completer","type":"address","indexed":true,"internalType":"address"}],"anonymous":false},{"type":"event","name":"OperationCreated","inputs":[{"name":"id","type":"uint256","indexed":true,"internalType":"uint256"},{"name":"creator","type":"address","indexed":true,"internalType":"address"},{"name":"tokenA","type":"address","indexed":false,"internalType":"address"},{"name":"tokenB","type":"address","indexed":false,"internalType":"address"},{"name":"amountA","type":"uint256","indexed":false,"internalType":"uint256"},{"name":"amountB","type":"uint256","indexed":false,"internalType":"uint256"}],"anonymous":false},{"type":"event","name":"OwnershipTransferred","inputs":[{"name":"previousOwner","type":"address","indexed":true,"internalType":"address"},{"name":"newOwner","type":"address","indexed":true,"internalType":"address"}],"anonymous":false},{"type":"event","name":"TokenAdded","inputs":[{"name":"token","type":"address","indexed":true,"internalType":"address"}],"anonymous":false},{"type":"error","name":"OwnableInvalidOwner","inputs":[{"name":"owner","type":"address","internalType":"address"}]},{"type":"error","name":"OwnableUnauthorizedAccount","inputs":[{"name":"account","type":"address","internalType":"address"}]},{"type":"error","name":"ReentrancyGuardReentrantCall","inputs":[]},{"type":"error","name":"SafeERC20FailedOperation","inputs":[{"name":"token","type":"address","internalType":"address"}]}],"bytecode":{"object":"0x608060405234801561000f575f5ffd5b50335f73ffffffffffffffffffffffffffffffffffffffff168173ffffffffffffffffffffffffffffffffffffffff1603610081575f6040517f1e4fbdf700000000000000000000000000000000000000000000000000000000815260040161007891906101ec565b60405180910390fd5b610090816100ba60201b60201c565b5060016100af6100a461017b60201b60201c565b6101a460201b60201c565b5f0181905550610205565b5f5f5f9054906101000a900473ffffffffffffffffffffffffffffffffffffffff169050815f5f6101000a81548173ffffffffffffffffffffffffffffffffffffffff021916908373ffffffffffffffffffffffffffffffffffffffff1602179055508173ffffffffffffffffffffffffffffffffffffffff168173ffffffffffffffffffffffffffffffffffffffff167f8be0079c531659141344cd1fd0a4f28419497f9722a3daafe3b4186f6b6457e060405160405180910390a35050565b5f7f9b779b17422d0df92223018b32b4d1fa46e071723d6817e2486d003becc55f005f1b905090565b5f819050919050565b5f73ffffffffffffffffffffffffffffffffffffffff82169050919050565b5f6101d6826101ad565b9050919050565b6101e6816101cc565b82525050565b5f6020820190506101ff5f8301846101dd565b92915050565b611e92806102125f395ff3fe608060405234801561000f575f5ffd5b50600436106100b2575f3560e01c8063b2e9949d1161006f578063b2e9949d14610152578063c36dd73914610188578063d48bfca7146101b8578063d9db14cb146101d4578063e744092e146101f0578063f2fde38b14610220576100b2565b8063024ece89146100b65780630bdaaaf5146100d45780635c945227146100f2578063715018a61461010e5780638da5cb5b1461011857806399a0fba914610136575b5f5ffd5b6100be61023c565b6040516100cb91906115af565b60405180910390f35b6100dc6102c7565b6040516100e9919061178e565b60405180910390f35b61010c600480360381019061010791906117dc565b610479565b005b6101166106a9565b005b6101206106bc565b60405161012d9190611816565b60405180910390f35b610150600480360381019061014b9190611859565b6106e3565b005b61016c600480360381019061016791906117dc565b610ae9565b60405161017f97969594939291906118db565b60405180910390f35b6101a2600480360381019061019d91906117dc565b610b9f565b6040516101af9190611816565b60405180910390f35b6101d260048036038101906101cd9190611948565b610bda565b005b6101ee60048036038101906101e991906117dc565b610dd4565b005b61020a60048036038101906102059190611948565b611092565b604051610217919061198d565b60405180910390f35b61023a60048036038101906102359190611948565b6110af565b005b606060028054806020026020016040519081016040528092919081815260200182805480156102bd57602002820191905f5260205f20905b815f9054906101000a900473ffffffffffffffffffffffffffffffffffffffff1673ffffffffffffffffffffffffffffffffffffffff1681526020019060010190808311610274575b5050505050905090565b60606003805480602002602001604051908101604052809291908181526020015f905b82821015610470578382905f5260205f2090600702016040518060e00160405290815f8201548152602001600182015f9054906101000a900473ffffffffffffffffffffffffffffffffffffffff1673ffffffffffffffffffffffffffffffffffffffff1673ffffffffffffffffffffffffffffffffffffffff168152602001600282015f9054906101000a900473ffffffffffffffffffffffffffffffffffffffff1673ffffffffffffffffffffffffffffffffffffffff1673ffffffffffffffffffffffffffffffffffffffff168152602001600382015f9054906101000a900473ffffffffffffffffffffffffffffffffffffffff1673ffffffffffffffffffffffffffffffffffffffff1673ffffffffffffffffffffffffffffffffffffffff1681526020016004820154815260200160058201548152602001600682015f9054906101000a900460ff16600281111561044b5761044a611610565b5b600281111561045d5761045c611610565b5b81525050815260200190600101906102ea565b50505050905090565b610481611133565b60038054905081106104c8576040517f08c379a00000000000000000000000000000000000000000000000000000000081526004016104bf90611a00565b60405180910390fd5b5f600382815481106104dd576104dc611a1e565b5b905f5260205f20906007020190505f60028111156104fe576104fd611610565b5b816006015f9054906101000a900460ff16600281111561052157610520611610565b5b14610561576040517f08c379a000000000000000000000000000000000000000000000000000000000815260040161055890611a95565b60405180910390fd5b806001015f9054906101000a900473ffffffffffffffffffffffffffffffffffffffff1673ffffffffffffffffffffffffffffffffffffffff163373ffffffffffffffffffffffffffffffffffffffff16146105f2576040517f08c379a00000000000000000000000000000000000000000000000000000000081526004016105e990611afd565b60405180910390fd5b6002816006015f6101000a81548160ff0219169083600281111561061957610618611610565b5b0217905550610670338260040154836002015f9054906101000a900473ffffffffffffffffffffffffffffffffffffffff1673ffffffffffffffffffffffffffffffffffffffff166111559092919063ffffffff16565b817f6b7f7505a4267990f8d5bcaf5883b6770758862c5217e7384e0b2265bdfe2b0360405160405180910390a2506106a66111a8565b50565b6106b16111c2565b6106ba5f611249565b565b5f5f5f9054906101000a900473ffffffffffffffffffffffffffffffffffffffff16905090565b6106eb611133565b60015f8573ffffffffffffffffffffffffffffffffffffffff1673ffffffffffffffffffffffffffffffffffffffff1681526020019081526020015f205f9054906101000a900460ff16610774576040517f08c379a000000000000000000000000000000000000000000000000000000000815260040161076b90611b65565b60405180910390fd5b60015f8473ffffffffffffffffffffffffffffffffffffffff1673ffffffffffffffffffffffffffffffffffffffff1681526020019081526020015f205f9054906101000a900460ff166107fd576040517f08c379a00000000000000000000000000000000000000000000000000000000081526004016107f490611bcd565b60405180910390fd5b5f821161083f576040517f08c379a000000000000000000000000000000000000000000000000000000000815260040161083690611c35565b60405180910390fd5b5f8111610881576040517f08c379a000000000000000000000000000000000000000000000000000000000815260040161087890611c9d565b60405180910390fd5b5f600380549050905060036040518060e001604052808381526020013373ffffffffffffffffffffffffffffffffffffffff1681526020018773ffffffffffffffffffffffffffffffffffffffff1681526020018673ffffffffffffffffffffffffffffffffffffffff1681526020018581526020018481526020015f60028111156109105761090f611610565b5b815250908060018154018082558091505060019003905f5260205f2090600702015f909190919091505f820151815f01556020820151816001015f6101000a81548173ffffffffffffffffffffffffffffffffffffffff021916908373ffffffffffffffffffffffffffffffffffffffff1602179055506040820151816002015f6101000a81548173ffffffffffffffffffffffffffffffffffffffff021916908373ffffffffffffffffffffffffffffffffffffffff1602179055506060820151816003015f6101000a81548173ffffffffffffffffffffffffffffffffffffffff021916908373ffffffffffffffffffffffffffffffffffffffff1602179055506080820151816004015560a0820151816005015560c0820151816006015f6101000a81548160ff02191690836002811115610a5157610a50611610565b5b02179055505050610a853330858873ffffffffffffffffffffffffffffffffffffffff1661130a909392919063ffffffff16565b3373ffffffffffffffffffffffffffffffffffffffff16817f63cef31e05a591b010e90ea6b73f24a90f41328256993fb236011e9e74aedfa487878787604051610ad29493929190611cbb565b60405180910390a350610ae36111a8565b50505050565b60038181548110610af8575f80fd5b905f5260205f2090600702015f91509050805f015490806001015f9054906101000a900473ffffffffffffffffffffffffffffffffffffffff1690806002015f9054906101000a900473ffffffffffffffffffffffffffffffffffffffff1690806003015f9054906101000a900473ffffffffffffffffffffffffffffffffffffffff1690806004015490806005015490806006015f9054906101000a900460ff16905087565b60028181548110610bae575f80fd5b905f5260205f20015f915054906101000a900473ffffffffffffffffffffffffffffffffffffffff1681565b610be26111c2565b5f73ffffffffffffffffffffffffffffffffffffffff168173ffffffffffffffffffffffffffffffffffffffff1603610c50576040517f08c379a0000000000000000000000000000000000000000000000000000000008152600401610c4790611d48565b60405180910390fd5b60015f8273ffffffffffffffffffffffffffffffffffffffff1673ffffffffffffffffffffffffffffffffffffffff1681526020019081526020015f205f9054906101000a900460ff1615610cda576040517f08c379a0000000000000000000000000000000000000000000000000000000008152600401610cd190611db0565b60405180910390fd5b6001805f8373ffffffffffffffffffffffffffffffffffffffff1673ffffffffffffffffffffffffffffffffffffffff1681526020019081526020015f205f6101000a81548160ff021916908315150217905550600281908060018154018082558091505060019003905f5260205f20015f9091909190916101000a81548173ffffffffffffffffffffffffffffffffffffffff021916908373ffffffffffffffffffffffffffffffffffffffff1602179055508073ffffffffffffffffffffffffffffffffffffffff167f784c8f4dbf0ffedd6e72c76501c545a70f8b203b30a26ce542bf92ba87c248a460405160405180910390a250565b610ddc611133565b6003805490508110610e23576040517f08c379a0000000000000000000000000000000000000000000000000000000008152600401610e1a90611a00565b60405180910390fd5b5f60038281548110610e3857610e37611a1e565b5b905f5260205f20906007020190505f6002811115610e5957610e58611610565b5b816006015f9054906101000a900460ff166002811115610e7c57610e7b611610565b5b14610ebc576040517f08c379a0000000000000000000000000000000000000000000000000000000008152600401610eb390611a95565b60405180910390fd5b806001015f9054906101000a900473ffffffffffffffffffffffffffffffffffffffff1673ffffffffffffffffffffffffffffffffffffffff163373ffffffffffffffffffffffffffffffffffffffff1603610f4d576040517f08c379a0000000000000000000000000000000000000000000000000000000008152600401610f4490611e3e565b60405180910390fd5b6001816006015f6101000a81548160ff02191690836002811115610f7457610f73611610565b5b0217905550610ff033826001015f9054906101000a900473ffffffffffffffffffffffffffffffffffffffff168360050154846003015f9054906101000a900473ffffffffffffffffffffffffffffffffffffffff1673ffffffffffffffffffffffffffffffffffffffff1661130a909392919063ffffffff16565b611042338260040154836002015f9054906101000a900473ffffffffffffffffffffffffffffffffffffffff1673ffffffffffffffffffffffffffffffffffffffff166111559092919063ffffffff16565b3373ffffffffffffffffffffffffffffffffffffffff16827fbb13147c5e0889793f679436d522cfbddb42f2cbc4b829a925633874be11616d60405160405180910390a35061108f6111a8565b50565b6001602052805f5260405f205f915054906101000a900460ff1681565b6110b76111c2565b5f73ffffffffffffffffffffffffffffffffffffffff168173ffffffffffffffffffffffffffffffffffffffff1603611127575f6040517f1e4fbdf700000000000000000000000000000000000000000000000000000000815260040161111e9190611816565b60405180910390fd5b61113081611249565b50565b61113b61135f565b600261114d6111486113a0565b6113c9565b5f0181905550565b61116283838360016113d2565b6111a357826040517f5274afe700000000000000000000000000000000000000000000000000000000815260040161119a9190611816565b60405180910390fd5b505050565b60016111ba6111b56113a0565b6113c9565b5f0181905550565b6111ca611434565b73ffffffffffffffffffffffffffffffffffffffff166111e86106bc565b73ffffffffffffffffffffffffffffffffffffffff16146112475761120b611434565b6040517f118cdaa700000000000000000000000000000000000000000000000000000000815260040161123e9190611816565b60405180910390fd5b565b5f5f5f9054906101000a900473ffffffffffffffffffffffffffffffffffffffff169050815f5f6101000a81548173ffffffffffffffffffffffffffffffffffffffff021916908373ffffffffffffffffffffffffffffffffffffffff1602179055508173ffffffffffffffffffffffffffffffffffffffff168173ffffffffffffffffffffffffffffffffffffffff167f8be0079c531659141344cd1fd0a4f28419497f9722a3daafe3b4186f6b6457e060405160405180910390a35050565b61131884848484600161143b565b61135957836040517f5274afe70000000000000000000000000000000000000000000000000000000081526004016113509190611816565b60405180910390fd5b50505050565b6113676114ac565b1561139e576040517f3ee5aeb500000000000000000000000000000000000000000000000000000000815260040160405180910390fd5b565b5f7f9b779b17422d0df92223018b32b4d1fa46e071723d6817e2486d003becc55f005f1b905090565b5f819050919050565b5f5f63a9059cbb60e01b9050604051815f525f1960601c86166004528460245260205f60445f5f8b5af1925060015f5114831661142657838315161561141a573d5f823e3d81fd5b5f873b113d1516831692505b806040525050949350505050565b5f33905090565b5f5f6323b872dd60e01b9050604051815f525f1960601c87166004525f1960601c86166024528460445260205f60645f5f8c5af1925060015f5114831661149957838315161561148d573d5f823e3d81fd5b5f883b113d1516831692505b806040525f606052505095945050505050565b5f60026114bf6114ba6113a0565b6113c9565b5f015414905090565b5f81519050919050565b5f82825260208201905092915050565b5f819050602082019050919050565b5f73ffffffffffffffffffffffffffffffffffffffff82169050919050565b5f61151a826114f1565b9050919050565b61152a81611510565b82525050565b5f61153b8383611521565b60208301905092915050565b5f602082019050919050565b5f61155d826114c8565b61156781856114d2565b9350611572836114e2565b805f5b838110156115a25781516115898882611530565b975061159483611547565b925050600181019050611575565b5085935050505092915050565b5f6020820190508181035f8301526115c78184611553565b905092915050565b5f81519050919050565b5f82825260208201905092915050565b5f819050602082019050919050565b5f819050919050565b61160a816115f8565b82525050565b7f4e487b71000000000000000000000000000000000000000000000000000000005f52602160045260245ffd5b6003811061164e5761164d611610565b5b50565b5f81905061165e8261163d565b919050565b5f61166d82611651565b9050919050565b61167d81611663565b82525050565b60e082015f8201516116975f850182611601565b5060208201516116aa6020850182611521565b5060408201516116bd6040850182611521565b5060608201516116d06060850182611521565b5060808201516116e36080850182611601565b5060a08201516116f660a0850182611601565b5060c082015161170960c0850182611674565b50505050565b5f61171a8383611683565b60e08301905092915050565b5f602082019050919050565b5f61173c826115cf565b61174681856115d9565b9350611751836115e9565b805f5b83811015611781578151611768888261170f565b975061177383611726565b925050600181019050611754565b5085935050505092915050565b5f6020820190508181035f8301526117a68184611732565b905092915050565b5f5ffd5b6117bb816115f8565b81146117c5575f5ffd5b50565b5f813590506117d6816117b2565b92915050565b5f602082840312156117f1576117f06117ae565b5b5f6117fe848285016117c8565b91505092915050565b61181081611510565b82525050565b5f6020820190506118295f830184611807565b92915050565b61183881611510565b8114611842575f5ffd5b50565b5f813590506118538161182f565b92915050565b5f5f5f5f60808587031215611871576118706117ae565b5b5f61187e87828801611845565b945050602061188f87828801611845565b93505060406118a0878288016117c8565b92505060606118b1878288016117c8565b91505092959194509250565b6118c6816115f8565b82525050565b6118d581611663565b82525050565b5f60e0820190506118ee5f83018a6118bd565b6118fb6020830189611807565b6119086040830188611807565b6119156060830187611807565b61192260808301866118bd565b61192f60a08301856118bd565b61193c60c08301846118cc565b98975050505050505050565b5f6020828403121561195d5761195c6117ae565b5b5f61196a84828501611845565b91505092915050565b5f8115159050919050565b61198781611973565b82525050565b5f6020820190506119a05f83018461197e565b92915050565b5f82825260208201905092915050565b7f496e76616c6964206f7065726174696f6e2049440000000000000000000000005f82015250565b5f6119ea6014836119a6565b91506119f5826119b6565b602082019050919050565b5f6020820190508181035f830152611a17816119de565b9050919050565b7f4e487b71000000000000000000000000000000000000000000000000000000005f52603260045260245ffd5b7f4f7065726174696f6e206e6f74206163746976650000000000000000000000005f82015250565b5f611a7f6014836119a6565b9150611a8a82611a4b565b602082019050919050565b5f6020820190508181035f830152611aac81611a73565b9050919050565b7f4f6e6c792063726561746f722063616e2063616e63656c0000000000000000005f82015250565b5f611ae76017836119a6565b9150611af282611ab3565b602082019050919050565b5f6020820190508181035f830152611b1481611adb565b9050919050565b7f546f6b656e2041206e6f7420616c6c6f776564000000000000000000000000005f82015250565b5f611b4f6013836119a6565b9150611b5a82611b1b565b602082019050919050565b5f6020820190508181035f830152611b7c81611b43565b9050919050565b7f546f6b656e2042206e6f7420616c6c6f776564000000000000000000000000005f82015250565b5f611bb76013836119a6565b9150611bc282611b83565b602082019050919050565b5f6020820190508181035f830152611be481611bab565b9050919050565b7f416d6f756e742041206d757374206265207370656369666963000000000000005f82015250565b5f611c1f6019836119a6565b9150611c2a82611beb565b602082019050919050565b5f6020820190508181035f830152611c4c81611c13565b9050919050565b7f416d6f756e742042206d757374206265207370656369666963000000000000005f82015250565b5f611c876019836119a6565b9150611c9282611c53565b602082019050919050565b5f6020820190508181035f830152611cb481611c7b565b9050919050565b5f608082019050611cce5f830187611807565b611cdb6020830186611807565b611ce860408301856118bd565b611cf560608301846118bd565b95945050505050565b7f496e76616c696420746f6b656e206164647265737300000000000000000000005f82015250565b5f611d326015836119a6565b9150611d3d82611cfe565b602082019050919050565b5f6020820190508181035f830152611d5f81611d26565b9050919050565b7f546f6b656e20616c726561647920616c6c6f77656400000000000000000000005f82015250565b5f611d9a6015836119a6565b9150611da582611d66565b602082019050919050565b5f6020820190508181035f830152611dc781611d8e565b9050919050565b7f43616e6e6f7420636f6d706c65746520796f7572206f776e206f7065726174695f8201527f6f6e000000000000000000000000000000000000000000000000000000000000602082015250565b5f611e286022836119a6565b9150611e3382611dce565b604082019050919050565b5f6020820190508181035f830152611e5581611e1c565b905091905056fea26469706673582212205a3da7416d81250c969046a6d3cd50c5f55433353e13b201f399e553747ad2b764736f6c63430008210033","linkReferences":{}},"methodIdentifiers":{"addToken(address)":"d48bfca7","allowedTokens(address)":"e744092e","allowedTokensList(uint256)":"c36dd739","cancelOperation(uint256)":"5c945227","completeOperation(uint256)":"d9db14cb","createOperation(address,address,uint256,uint256)":"99a0fba9","getAllOperations()":"0bdaaaf5","getAllowedTokens()":"024ece89","operations(uint256)":"b2e9949d","owner()":"8da5cb5b","renounceOwnership()":"715018a6","transferOwnership(address)":"f2fde38b"},"id":32}